:020000040800F2
:10000000FFFF0220550C0008A50C0008A50C0008F5
:10001000A50C0008A50C0008A50C000800000000B5
:10002000000000000000000000000000A50C000817
:10003000A50C000800000000A50C0008A50C000895
:10004000A50C0008A50C0008A50C0008A50C0008CC
:10005000A50C0008A50C0008A50C0008A50C0008BC
:10006000A50C0008A50C0008A50C0008A50C0008AC
:10007000A50C0008A50C0008A50C0008A50C00089C
:10008000A50C0008A50C0008A50C0008A50C00088C
:10009000A50C0008A50C0008A50C0008A50C00087C
:1000A000A50C0008A50C0008A50C0008A50C00086C
:1000B000A50C0008A50C0008A50C0008A50C00085C
:1000C000A50C0008A50C0008A50C0008A50C00084C
:1000D000A50C0008A50C0008A50C0008A50C00083C
:1000E000A50C0008A50C0008A50C0008A50C00082C
:1000F000A50C0008A50C0008A50C0008A50C00081C
:10010000A50C0008A50C0008A50C0008A50C00080B
:10011000A50C0008A50C0008A50C0008A50C0008FB
:10012000A50C0008A50C0008A50C0008A50C0008EB
:10013000A50C0008A50C0008A50C0008A50C0008DB
:10014000A50C0008A50C0008A50C0008A50C0008CB
:10015000A50C0008A50C0008A50C0008A50C0008BB
:10016000A50C0008A50C0008A50C0008A50C0008AB
:10017000A50C0008A50C0008A50C00080000000054
:10018000A50C0008A50C0008A50C0008A50C00088B
:10019000A50C0008A50C0008A50C0008A50C00087B
:0C01A000A50C0008A50C0008A50C000828
:1001AC0010B5054C237833B9044B13B10448AFF3A5
:1001BC0000800123237010BD4004002000000000CB
:1001CC00A80C0008084B10B51BB108480849AFF340
:1001DC0000800848036803B910BD074B002BFBD007
:1001EC00BDE81040184700BF00000000A80C000834
:1001FC0044040020400400200000000080B483B0C0
:10020C0000AF7860084A084B1B6823F0400313606A
:10021C000549054B1B687A68920113430B600C3738
:10022C00BD465DF8047B70470034014080B584B056
:10023C0000AFF860B9607A603B6000F0BFF9F86815
:10024C0000F024F8B86800F039F8786800F04EF83F
:10025C00386800F093F8B86900F078F8786A00F024
:10026C0019F9F86A00F054F93B68002B0BD1B86A05
:10027C0000F028F9F86900F099F8386A00F0AEF847
:10028C00386B00F05DF91037BD4680BD80B483B08B
:10029C0000AF7860084A084B1B6823F400431360D6
:1002AC000549054B1B687A68D20313430B600C3766
:1002BC00BD465DF8047B70470034014080B483B0C8
:1002CC0000AF7860084A084B1B6823F48043136026
:1002DC000549054B1B687A68920313430B600C3776
:1002EC00BD465DF8047B70470034014080B483B098
:1002FC0000AF7860084A084B1B6823F480631360D6
:10030C000549054B1B687A68920213430B600C3746
:10031C00BD465DF8047B70470034014080B483B067
:10032C0000AF7860084A084B1B6823F00403136085
:10033C000549054B1B687A68920013430B600C3718
:10034C00BD465DF8047B70470034014080B483B037
:10035C0000AF7860084A084B1B6823F400631360F5
:10036C000549054B1B687A68D20213430B600C37A6
:10037C00BD465DF8047B70470034014080B483B007
:10038C0000AF7860084A084B5B6823F01003536099
:10039C000549054B5B687A68120113434B600C37B7
:1003AC00BD465DF8047B70470034014080B483B0D7
:1003BC0000AF7860084A084B1B6823F08003136079
:1003CC000549054B1B687A68D20113430B600C3747
:1003DC00BD465DF8047B70470034014080B483B0A7
:1003EC0000AF78607B68013B032B3FD801A252F829
:1003FC0023F000BF110400082B040008450400087A
:10040C005F040008224A224B1B6823F0020313608E
:10041C001F4A1F4B1B6823F00103136032E01C4A78
:10042C001B4B1B6823F002031360194A184B1B6803
:10043C0043F00103136025E0154A154B1B6843F08C
:10044C0002031360124A124B1B6823F00103136062
:10045C0018E00F4A0E4B1B6843F0020313600C4A62
:10046C000B4B1B6843F0010313600BE0084A084B6D
:10047C001B6823F002031360054A054B1B6823F02D
:10048C00010313600C37BD465DF8047B704700BF59
:10049C000034014080B483B000AF7860084A084B48
:1004AC001B6823F4005313600549054B1B687A68DD
:1004BC00520313430B600C37BD465DF8047B704749
:1004CC000034014080B483B000AF78600F4A0F4B0A
:1004DC001B6823F4007313600C490C4B1B687A687F
:1004EC00520213430B60094A084B1B6823F48073B8
:1004FC0013600649054B1B687A68120213430B60A4
:10050C000C37BD465DF8047B704700BF00340140DA
:10051C0080B483B000AF7860084A084B1B6823F0A6
:10052C00380313600549054B1B687A68D2001343E6
:10053C000B600C37BD465DF8047B704700340140FE
:10054C0080B483B000AF7860084A084B5B6823F036
:10055C00040353600549054B5B687A6892001343AA
:10056C004B600C37BD465DF8047B7047003401408E
:10057C0080B485B000AF78607B6803F13F4303F52E
:10058C007E03002B01DA03F2FF339B12FB600A4956
:10059C00094B1B690120FA6800FA02F2D24313409E
:1005AC000B61054B1B6B044B4FF0FF321A63143776
:1005BC00BD465DF8047B70470038024080B400AF44
:1005CC00074A074B5B6A23F400535362044A044BFB
:1005DC005B6C43F400535364BD465DF8047B704779
:1005EC000038024080B483B000AF786002E07B68D2
:1005FC00013B7B607B68002BF9D10C37BD465DF865
:10060C00047B704780B58AB008AF02200221404AB3
:10061C0000F0C0F902203E49022200F017FA022035
:10062C003B49052200F032FA02203949002200F041
:10063C004DFA02200521364A00F0ACF90520344968
:10064C00022200F003FA05203149052200F01EFABF
:10065C0005202F49002200F039FA022006212C4AED
:10066C0000F098F906202A49022200F0EFF9062042
:10067C002749052200F00AFA06202549002200F03D
:10068C0025FA01200421224A00F084F90420204993
:10069C00012200F0DBF904201D49052200F0F6F9D7
:1006AC0004201B49002200F011FA002300930023C0
:1006BC000193012302930123039301230493012348
:1006CC000593012306930020002100220123FFF74C
:1006DC00ADFD0120FFF722FE0120FFF78FFDAA23BD
:1006EC007B6004200A4900F08BF942F21070FFF78E
:1006FC0079FF0420064900F095F90A20FFF772FFF4
:10070C00044A7B68D36042F21070FFF76BFFE8E796
:10071C00001002400034014080B500AF114A114B6B
:10072C001B6843F0010313600E4B00229A600D4AC4
:10073C000C4B1B6823F0847323F480331360094B38
:10074C00094A5A60074A074B1B6823F4802313603D
:10075C00044B0022DA6000F087F8044B4FF0006283
:10076C009A6080BD003802401030002400ED00E09B
:10077C0080B487B000AF00233B6100237B61022370
:10078C00FB600023BB6002237B60324B9B6803F051
:10079C000C033B613B69042B07D0082B09D0002BC1
:1007AC003FD12D4B2D4A1A603FE02B4B2C4A1A603F
:1007BC003BE0284B5B6803F480039B0DBB60254B2F
:1007CC005B6803F03F037B60BB68002B0DD0244AB1
:1007DC007B68B2FBF3F21F4B596847F6C0730B40B2
:1007EC009B0903FB02F37B610CE01C4A7B68B2FBA8
:1007FC00F3F2184B596847F6C0730B409B0903FB87
:10080C0002F37B61134B5B6803F440331B0C013325
:10081C005B00FB607A69FB68B2FBF3F30E4A136072
:10082C0003E00D4B0D4A1A6000BF0A4B9B6803F0A6
:10083C00F0031B090B4AD35CDBB23B61064B1A6815
:10084C003B6922FA03F3044A13601C37BD465DF87A
:10085C00047B704700380240000000200024F400A4
:10086C0000127A000400002080B483B000AF002393
:10087C007B6000233B60434A424B1B6843F480334C
:10088C001360404B1B6803F400333B607B680133FF
:10089C007B603B68002B04D17B6841F28832934229
:1008AC00EFD1384B1B6803F40033002B02D001232B
:1008BC003B6001E000233B603B68012B5CD1314A7B
:1008CC00304B1B6C43F0805313642F4A2E4B1B6828
:1008DC0043F4404313602B4A2A4B9B689360294A8C
:1008EC00284B9B6843F400439360264A254B9B6836
:1008FC0043F4A0539360234B244A5A60214A214B62
:10090C001B6843F08073136000BF1E4B1B6803F021
:10091C000073002BF9D01C4A1B4B1B6843F480332B
:10092C00136000BF184B5B6803F48033002BF9D0C5
:10093C00154A154B1B6843F40033136000BF124B70
:10094C005B6803F40033002BF9D0114B40F20572B5
:10095C001A600C4A0B4B9B6823F003039360094A03
:10096C00084B9B6843F00203936000BF054B9B68E8
:10097C0003F00C03082BF9D10C37BD465DF8047B52
:10098C00704700BF0038024000700040085A400712
:10099C00003C024080B584B000AFF860B9607A606A
:1009AC007868FFF7E5FD7B681B68BA685200032185
:1009BC0001FA02F2D2431A407B681A607B681B680A
:1009CC00BA685200F96801FA02F21A437B681A609D
:1009DC007B689B68BA685200032101FA02F2D24389
:1009EC001A407B689A607B689B68BA685200032146
:1009FC0001FA02F21A437B689A601037BD4680BD3B
:100A0C0080B483B000AF03463960FB80FB880122C1
:100A1C0002FA03F31A463B689A610C37BD465DF83F
:100A2C00047B704780B483B000AF03463960FB8011
:100A3C00FB881033012202FA03F31A463B689A61D1
:100A4C000C37BD465DF8047B704700BF80B485B0A1
:100A5C0000AFF860B9607A60BB68DB68FA68520076
:100A6C00032101FA02F2D2431A40BB68DA60BB6878
:100A7C00DB68FA685200796801FA02F21A43BB6823
:100A8C00DA601437BD465DF8047B704780B485B0DE
:100A9C0000AFF860B9607A60BB681B6AFA689200B4
:100AAC00102101FA02F2D2431A40BB681A62BB68E9
:100ABC001B6AFA689200796801FA02F21A43BB6861
:100ACC001A621437BD465DF8047B704780B485B05C
:100ADC0000AFF860B9607A60BB685B680121FA68A6
:100AEC0001FA02F2D2431A40BB685A60BB685B68D9
:100AFC007968FA6801FA02F21A43BB685A60143733
:100B0C00BD465DF8047B704770B50F4E0F4D761BDC
:100B1C00B61018BF002405D0013455F8043B984793
:100B2C00A642F9D10A4E0B4D761B00F0B7F8B61061
:100B3C0018BF002406D0013455F8043B9847A64250
:100B4C00F9D170BD70BD00BFC80C0008C80C0008FE
:100B5C00D00C0008C80C0008024B13B1024800F07E
:100B6C0005B8704700000000850B00080146002006
:100B7C000246034600F016B838B5084B084DED1A7E
:100B8C00AC1018BFED1805D0013C55F8043D984742
:100B9C00002CF9D1BDE8384000F086B8D00C000824
:100BAC00D40C00082DE9F047254C2568D5F84841B0
:100BBC000646884692469946CCB360681F2818DCD6
:100BCC00431C7EB104EB80050121C5F888A0D4F844
:100BDC00887101FA00F21743022EC4F88871C5F827
:100BEC0008911ED00230636044F820800020BDE8DC
:100BFC00F087144B03B34FF4C870AFF30080044676
:100C0C00D0B1D5F84831002780E88800C5F84841B4
:100C1C0038460123C4F88871C4F88C71002EE1D0D9
:100C2C00D0E7D4F88C110A43C4F88C21DAE705F527
:100C3C00A674C5F84841C0E74FF0FF30BDE8F08717
:100C4C00C40C000800000000DFF834D0002103E0E1
:100C5C000C4B5B58435004310B480C4B42189A42D6
:100C6C00F6D30B4A02E0002342F8043B094B9A42AC
:100C7C00F9D3FFF751FDFFF747FFFFF7C3FC7047B0
:100C8C00FFFF0220D40C00080000002040040020CC
:100C9C00400400205C040020FEE70000F8B500BF13
:100CAC00F8BC08BC9E467047F8B500BFF8BC08BC41
:040CBC009E46704799
:080CC0004300000018000020B1
:080CC800650B0008D1010008D2
:040CD000AD0100086A
:100CD4000095BA0A000000000000000001020304AD
:100CE40006070809000000000000000004030020BB
:100CF4006C030020D403002000000000000000006A
:100D040000000000000000000000000000000000DF
:100D1400000000000000000000000000C00C0008FB
:100D240000000000000000000000000000000000BF
:100D340000000000000000000000000000000000AF
:100D4400000000000000000000000000000000009F
:100D5400000000000000000000000000000000008F
:100D6400000000000000000000000000000000007F
:100D7400000000000000000000000000000000006F
:100D8400000000000000000000000000000000005F
:100D940001000000000000000E33CDAB34126DE6FC
:100DA400ECDE05000B000000000000000000000065
:100DB400000000000000000000000000000000002F
:100DC400000000000000000000000000000000001F
:100DD400000000000000000000000000000000000F
:100DE40000000000000000000000000000000000FF
:0400000508000C558E
:00000001FF
