:020000040800F2
:10000000FFFF0220690C0008B90C0008B90C0008B9
:10001000B90C0008B90C0008B90C00080000000079
:10002000000000000000000000000000B90C000803
:10003000B90C000800000000B90C0008B90C000859
:10004000B90C0008B90C0008B90C0008B90C00087C
:10005000B90C0008B90C0008B90C0008B90C00086C
:10006000B90C0008B90C0008B90C0008B90C00085C
:10007000B90C0008B90C0008B90C0008B90C00084C
:10008000B90C0008B90C0008B90C0008B90C00083C
:10009000B90C0008B90C0008B90C0008B90C00082C
:1000A000B90C0008B90C0008B90C0008B90C00081C
:1000B000B90C0008B90C0008B90C0008B90C00080C
:1000C000B90C0008B90C0008B90C0008B90C0008FC
:1000D000B90C0008B90C0008B90C0008B90C0008EC
:1000E000B90C0008B90C0008B90C0008B90C0008DC
:1000F000B90C0008B90C0008B90C0008B90C0008CC
:10010000B90C0008B90C0008B90C0008B90C0008BB
:10011000B90C0008B90C0008B90C0008B90C0008AB
:10012000B90C0008B90C0008B90C0008B90C00089B
:10013000B90C0008B90C0008B90C0008B90C00088B
:10014000B90C0008B90C0008B90C0008B90C00087B
:10015000B90C0008B90C0008B90C0008B90C00086B
:10016000B90C0008B90C0008B90C0008B90C00085B
:10017000B90C0008B90C0008B90C00080000000018
:10018000B90C0008B90C0008B90C0008B90C00083B
:10019000B90C0008B90C0008B90C0008B90C00082B
:0C01A000B90C0008B90C0008B90C0008EC
:1001AC0010B5054C237833B9044B13B10448AFF3A5
:1001BC0000800123237010BD4004002000000000CB
:1001CC00BC0C0008084B10B51BB108480849AFF32C
:1001DC0000800848036803B910BD074B002BFBD007
:1001EC00BDE81040184700BF00000000BC0C000820
:1001FC0044040020400400200000000080B582B0C0
:10020C0000AF0346FB71012000F00CF80346012BF4
:10021C0002D1034AFB79D3600837BD4680BD00BFCD
:10022C000034014080B485B000AF7860074B9B6808
:10023C00FB60064B9A687B6822FA03F303F0010318
:10024C0018461437BD465DF8047B704700340140F6
:10025C0080B485B000AF78600A4A0A4B1B6823F063
:10026C00400313600749074B1B687A6892011343DC
:10027C000B60044B1B68FB601437BD465DF8047BB8
:10028C00704700BF0034014080B584B000AFF86007
:10029C00B9607A603B6000F0B1F9F86800F024F8BE
:1002AC00B86800F039F8786800F04EF8386800F05B
:1002BC0093F8B86900F078F8786A00F019F9F86AE0
:1002CC0000F046F93B68002B0BD1B86A00F028F916
:1002DC00F86900F099F8386A00F0AEF8386B00F065
:1002EC004FF91037BD4680BD80B483B000AF786045
:1002FC00084A084B1B6823F4004313600549054B5F
:10030C001B687A68D20313430B600C37BD465DF84B
:10031C00047B70470034014080B483B000AF786038
:10032C00084A084B1B6823F4804313600549054BAE
:10033C001B687A68920313430B600C37BD465DF85B
:10034C00047B70470034014080B483B000AF786008
:10035C00084A084B1B6823F4806313600549054B5E
:10036C001B687A68920213430B600C37BD465DF82C
:10037C00047B70470034014080B483B000AF7860D8
:10038C00084A084B1B6823F0040313600549054B0E
:10039C001B687A68920013430B600C37BD465DF8FE
:1003AC00047B70470034014080B483B000AF7860A8
:1003BC00084A084B1B6823F4006313600549054B7E
:1003CC001B687A68D20213430B600C37BD465DF88C
:1003DC00047B70470034014080B483B000AF786078
:1003EC00084A084B5B6823F0100353600549054B22
:1003FC005B687A68120113434B600C37BD465DF89D
:10040C00047B70470034014080B483B000AF786047
:10041C00084A084B1B6823F0800313600549054B01
:10042C001B687A68D20113430B600C37BD465DF82C
:10043C00047B70470034014080B483B000AF786017
:10044C007B68013B032B3FD801A252F823F000BF7D
:10045C006D04000887040008A1040008BB04000810
:10046C00224A224B1B6823F0020313601F4A1F4BC6
:10047C001B6823F00103136032E01C4A1B4B1B6802
:10048C0023F002031360194A184B1B6843F0010355
:10049C00136025E0154A154B1B6843F002031360EB
:1004AC00124A124B1B6823F00103136018E00F4A29
:1004BC000E4B1B6843F0020313600C4A0B4B1B687A
:1004CC0043F0010313600BE0084A084B1B6823F050
:1004DC0002031360054A054B1B6823F001031360EC
:1004EC000C37BD465DF8047B704700BF00340140FB
:1004FC0080B483B000AF7860084A084B1B6823F4C3
:10050C00005313600549054B1B687A68520313436B
:10051C000B600C37BD465DF8047B7047003401401E
:10052C0080B483B000AF7860084A084B1B6823F492
:10053C00007313600549054B1B687A68520213431C
:10054C000B600C37BD465DF8047B704700340140EE
:10055C0080B483B000AF7860084A084B1B6823F066
:10056C00380313600549054B1B687A68D2001343A6
:10057C000B600C37BD465DF8047B704700340140BE
:10058C0080B483B000AF7860084A084B5B6823F0F6
:10059C00040353600549054B5B687A68920013436A
:1005AC004B600C37BD465DF8047B7047003401404E
:1005BC0080B485B000AF78607B6803F13F4303F5EE
:1005CC007E03002B01DA03F2FF339B12FB600A4916
:1005DC00094B1B690120FA6800FA02F2D24313405E
:1005EC000B61054B1B6B044B4FF0FF321A63143736
:1005FC00BD465DF8047B70470038024080B582B080
:10060C0000AF00F007F8786000F016F83860083793
:10061C00BD4680BD80B400AF064A064B5B6A23F42E
:10062C0000535362034B5B6A1846BD465DF8047B6E
:10063C00704700BF0038024080B400AF064A064B3A
:10064C005B6C43F400535364034B5B6C1846BD4620
:10065C005DF8047B704700BF0038024080B483B063
:10066C0000AF786002E07B68013B7B607B68002B0D
:10067C00F9D10C37BD465DF8047B704780B584B06A
:10068C0000AF02200221254A00F08AF902202349FA
:10069C00052200F001FAF860022005211F4A00F043
:1006AC007FF905201D49052200F0F6F902200621EC
:1006BC001A4A00F075F906201849052200F0ECF9E9
:1006CC00B86002200421154A00F06AF9042013498D
:1006DC00052200F0E1F9FFF791FF0120FFF77CFE06
:1006EC000120FFF749FE0120FFF7FEFD0020FFF778
:1006FC002BFE6420FFF72CFF0120FFF7A9FD42F22F
:10070C001070FFF7ABFF0820FFF778FD42F2107076
:10071C00FFF7A4FF024B9B687B60F0E700100240E0
:10072C000034014080B500AF114A114B1B6843F0F7
:10073C00010313600E4B00229A600D4A0C4B1B6890
:10074C0023F0847323F480331360094B094A5A60F5
:10075C00074A074B1B6823F480231360044B0022C9
:10076C00DA6000F087F8044B4FF000629A6080BDAD
:10077C00003802401030002400ED00E080B487B057
:10078C0000AF00233B6100237B610223FB6000234D
:10079C00BB6002237B60324B9B6803F00C033B6114
:1007AC003B69042B07D0082B09D0002B3FD12D4BD4
:1007BC002D4A1A603FE02B4B2C4A1A603BE0284B29
:1007CC005B6803F480039B0DBB60254B5B6803F0F7
:1007DC003F037B60BB68002B0DD0244A7B68B2FBC7
:1007EC00F3F21F4B596847F6C0730B409B0903FB90
:1007FC0002F37B610CE01C4A7B68B2FBF3F2184BF2
:10080C00596847F6C0730B409B0903FB02F37B61ED
:10081C00134B5B6803F440331B0C01335B00FB6030
:10082C007A69FB68B2FBF3F30E4A136003E00D4BDD
:10083C000D4A1A6000BF0A4B9B6803F0F0031B09BA
:10084C000B4AD35CDBB23B61064B1A683B6922FA5C
:10085C0003F3044A13601C37BD465DF8047B7047F4
:10086C0000380240000000200024F40000127A003E
:10087C000400002080B483B000AF00237B60002311
:10088C003B60434A424B1B6843F480331360404B3C
:10089C001B6803F400333B607B6801337B603B686F
:1008AC00002B04D17B6841F288329342EFD1384B54
:1008BC001B6803F40033002B02D001233B6001E0E2
:1008CC0000233B603B68012B5CD1314A304B1B6CE5
:1008DC0043F0805313642F4A2E4B1B6843F4404360
:1008EC0013602B4A2A4B9B689360294A284B9B68C0
:1008FC0043F400439360264A254B9B6843F4A05372
:10090C009360234B244A5A60214A214B1B6843F0C5
:10091C008073136000BF1E4B1B6803F00073002B29
:10092C00F9D01C4A1B4B1B6843F48033136000BF87
:10093C00184B5B6803F48033002BF9D0154A154B28
:10094C001B6843F40033136000BF124B5B6803F465
:10095C000033002BF9D0114B40F205721A600C4A8F
:10096C000B4B9B6823F003039360094A084B9B686D
:10097C0043F00203936000BF054B9B6803F00C032C
:10098C00082BF9D10C37BD465DF8047B704700BFCE
:10099C000038024000700040085A4007003C0240FA
:1009AC0080B584B000AFF860B9607A607868FFF702
:1009BC00FFFD7B681B68BA685200032101FA02F242
:1009CC00D2431A407B681A607B681B68BA68520075
:1009DC00F96801FA02F21A437B681A607B689B681B
:1009EC00BA685200032101FA02F2D2431A407B6822
:1009FC009A607B689B68BA685200022101FA02F285
:100A0C001A437B689A601037BD4680BD80B483B0B2
:100A1C0000AF03463960FB80FB88012202FA03F326
:100A2C001A463B689A610C37BD465DF8047B7047EB
:100A3C0080B483B000AF03463960FB80FB88103371
:100A4C00012202FA03F31A463B689A610C37BD4641
:100A5C005DF8047B704700BF80B485B000AFF860D0
:100A6C00B9607A60BB68DB68FA685200032101FA4E
:100A7C0002F2D2431A40BB68DA60BB68DB68FA68E2
:100A8C005200796801FA02F21A43BB68DA60143733
:100A9C00BD465DF8047B704780B485B000AFF8604C
:100AAC00B9607A60BB681B6AFA689200102101FA7F
:100ABC0002F2D2431A40BB681A62BB681B6AFA681E
:100ACC009200796801FA02F21A43BB681A62BB6899
:100ADC001B6A18461437BD465DF8047B704700BF8F
:100AEC0080B485B000AFF860B9607A60BB685B68B1
:100AFC000121FA6801FA02F2D2431A40BB685A602B
:100B0C00BB685B687968FA6801FA02F21A43BB6841
:100B1C005A601437BD465DF8047B704770B50F4EB4
:100B2C000F4D761BB61018BF002405D0013455F8B4
:100B3C00043B9847A642F9D10A4E0B4D761B00F0A8
:100B4C00B7F8B61018BF002406D0013455F8043B92
:100B5C009847A642F9D170BD70BD00BFDC0C0008EF
:100B6C00DC0C0008E40C0008DC0C0008024B13B190
:100B7C00024800F005B8704700000000990B00080F
:100B8C00014600200246034600F016B838B5084B63
:100B9C00084DED1AAC1018BFED1805D0013C55F8F6
:100BAC00043D9847002CF9D1BDE8384000F086B8D8
:100BBC00E40C0008E80C00082DE9F047254C2568EA
:100BCC00D5F848410646884692469946CCB36068AB
:100BDC001F2818DC431C7EB104EB80050121C5F8ED
:100BEC0088A0D4F8887101FA00F21743022EC4F8D9
:100BFC008871C5F808911ED00230636044F82080DB
:100C0C000020BDE8F087144B03B34FF4C870AFF36A
:100C1C0000800446D0B1D5F84831002780E8880020
:100C2C00C5F8484138460123C4F88871C4F88C7162
:100C3C00002EE1D0D0E7D4F88C110A43C4F88C21F3
:100C4C00DAE705F5A674C5F84841C0E74FF0FF3068
:100C5C00BDE8F087D80C000800000000DFF834D0A5
:100C6C00002103E00C4B5B58435004310B480C4BF8
:100C7C0042189A42F6D30B4A02E0002342F8043B96
:100C8C00094B9A42F9D3FFF74DFDFFF747FFFFF7EA
:100C9C00F5FC7047FFFF0220E80C00080000002064
:100CAC0040040020400400205C040020FEE700000B
:100CBC00F8B500BFF8BC08BC9E467047F8B500BF3D
:080CCC00F8BC08BC9E4670470D
:080CD40043000000180000209D
:080CDC00790B0008D1010008AA
:040CE400AD01000856
:100CE8000095BA0A00000000000000000102030499
:100CF80006070809000000000000000004030020A7
:100D08006C030020D4030020000000000000000055
:100D180000000000000000000000000000000000CB
:100D2800000000000000000000000000D40C0008D3
:100D380000000000000000000000000000000000AB
:100D4800000000000000000000000000000000009B
:100D5800000000000000000000000000000000008B
:100D6800000000000000000000000000000000007B
:100D7800000000000000000000000000000000006B
:100D8800000000000000000000000000000000005B
:100D9800000000000000000000000000000000004B
:100DA80001000000000000000E33CDAB34126DE6E8
:100DB800ECDE05000B000000000000000000000051
:100DC800000000000000000000000000000000001B
:100DD800000000000000000000000000000000000B
:100DE80000000000000000000000000000000000FB
:100DF80000000000000000000000000000000000EB
:0400000508000C697A
:00000001FF
